{
  "_format": "hh-sol-artifact-1",
  "contractName": "MyLiquidity",
  "sourceName": "contracts/MyLiquidity.sol",
  "abi": [
    {
      "anonymous": false,
      "inputs": [
        {
          "indexed": false,
          "internalType": "uint256",
          "name": "amountA",
          "type": "uint256"
        },
        {
          "indexed": false,
          "internalType": "uint256",
          "name": "amountB",
          "type": "uint256"
        },
        {
          "indexed": false,
          "internalType": "uint256",
          "name": "LPToken",
          "type": "uint256"
        },
        {
          "indexed": false,
          "internalType": "address",
          "name": "PoolAddress",
          "type": "address"
        }
      ],
      "name": "AddedLiquidity",
      "type": "event"
    },
    {
      "anonymous": false,
      "inputs": [
        {
          "indexed": false,
          "internalType": "uint256",
          "name": "amountA",
          "type": "uint256"
        },
        {
          "indexed": false,
          "internalType": "uint256",
          "name": "amountB",
          "type": "uint256"
        },
        {
          "indexed": false,
          "internalType": "address",
          "name": "PoolAddress",
          "type": "address"
        }
      ],
      "name": "RemovedLiquidity",
      "type": "event"
    },
    {
      "anonymous": false,
      "inputs": [
        {
          "indexed": false,
          "internalType": "uint256",
          "name": "TokenAmountOut",
          "type": "uint256"
        },
        {
          "indexed": false,
          "internalType": "address",
          "name": "tokenReciever",
          "type": "address"
        }
      ],
      "name": "TokenSwapped",
      "type": "event"
    },
    {
      "inputs": [
        {
          "internalType": "address",
          "name": "tokenA",
          "type": "address"
        },
        {
          "internalType": "address",
          "name": "tokenB",
          "type": "address"
        },
        {
          "internalType": "uint256",
          "name": "amountA",
          "type": "uint256"
        },
        {
          "internalType": "uint256",
          "name": "amountB",
          "type": "uint256"
        }
      ],
      "name": "addLiquidity",
      "outputs": [],
      "stateMutability": "nonpayable",
      "type": "function"
    },
    {
      "inputs": [],
      "name": "factory",
      "outputs": [
        {
          "internalType": "address",
          "name": "",
          "type": "address"
        }
      ],
      "stateMutability": "view",
      "type": "function"
    },
    {
      "inputs": [
        {
          "internalType": "address",
          "name": "",
          "type": "address"
        },
        {
          "internalType": "address",
          "name": "",
          "type": "address"
        }
      ],
      "name": "liquidityOf",
      "outputs": [
        {
          "internalType": "uint256",
          "name": "",
          "type": "uint256"
        }
      ],
      "stateMutability": "view",
      "type": "function"
    },
    {
      "inputs": [
        {
          "internalType": "address",
          "name": "tokenA",
          "type": "address"
        },
        {
          "internalType": "address",
          "name": "tokenB",
          "type": "address"
        }
      ],
      "name": "removeLiquidity",
      "outputs": [],
      "stateMutability": "nonpayable",
      "type": "function"
    },
    {
      "inputs": [],
      "name": "router",
      "outputs": [
        {
          "internalType": "address",
          "name": "",
          "type": "address"
        }
      ],
      "stateMutability": "view",
      "type": "function"
    },
    {
      "inputs": [
        {
          "internalType": "address",
          "name": "fromToken",
          "type": "address"
        },
        {
          "internalType": "address",
          "name": "toToken",
          "type": "address"
        },
        {
          "internalType": "uint256",
          "name": "tokenAmountForSwap",
          "type": "uint256"
        }
      ],
      "name": "swapTokens",
      "outputs": [],
      "stateMutability": "nonpayable",
      "type": "function"
    }
  ],
  "bytecode": "0x6080604052737a250d5630b4cf539739df2c5dacb4c659f2488d6000806101000a81548173ffffffffffffffffffffffffffffffffffffffff021916908373ffffffffffffffffffffffffffffffffffffffff160217905550735c69bee701ef814a2b6a3edd4b1652cb9cc5aa6f600160006101000a81548173ffffffffffffffffffffffffffffffffffffffff021916908373ffffffffffffffffffffffffffffffffffffffff1602179055503480156100b957600080fd5b50611bf6806100c96000396000f3fe608060405234801561001057600080fd5b50600436106100625760003560e01c80639cf38f7c14610067578063c45a015514610083578063cf6c62ea146100a1578063e140e135146100bd578063ec6cc0cc146100ed578063f887ea4014610109575b600080fd5b610081600480360381019061007c91906110de565b610127565b005b61008b6105c5565b604051610098919061112d565b60405180910390f35b6100bb60048036038101906100b6919061117e565b6105eb565b005b6100d760048036038101906100d291906110de565b610b5a565b6040516100e491906111f4565b60405180910390f35b6101076004803603810190610102919061120f565b610b7f565b005b610111611048565b60405161011e919061112d565b60405180910390f35b8173ffffffffffffffffffffffffffffffffffffffff16600073ffffffffffffffffffffffffffffffffffffffff161415801561019157508073ffffffffffffffffffffffffffffffffffffffff16600073ffffffffffffffffffffffffffffffffffffffff1614155b6101d0576040517f08c379a00000000000000000000000000000000000000000000000000000000081526004016101c7906112e5565b60405180910390fd5b6000600160009054906101000a900473ffffffffffffffffffffffffffffffffffffffff1673ffffffffffffffffffffffffffffffffffffffff1663e6a4390584846040518363ffffffff1660e01b815260040161022f929190611305565b602060405180830381865afa15801561024c573d6000803e3d6000fd5b505050506040513d601f19601f820116820180604052508101906102709190611343565b90506000600260003373ffffffffffffffffffffffffffffffffffffffff1673ffffffffffffffffffffffffffffffffffffffff16815260200190815260200160002060008373ffffffffffffffffffffffffffffffffffffffff1673ffffffffffffffffffffffffffffffffffffffff1681526020019081526020016000205411610331576040517f08c379a0000000000000000000000000000000000000000000000000000000008152600401610328906113e2565b60405180910390fd5b6000600260003373ffffffffffffffffffffffffffffffffffffffff1673ffffffffffffffffffffffffffffffffffffffff16815260200190815260200160002060008373ffffffffffffffffffffffffffffffffffffffff1673ffffffffffffffffffffffffffffffffffffffff1681526020019081526020016000205490506000600260003373ffffffffffffffffffffffffffffffffffffffff1673ffffffffffffffffffffffffffffffffffffffff16815260200190815260200160002060008473ffffffffffffffffffffffffffffffffffffffff1673ffffffffffffffffffffffffffffffffffffffff168152602001908152602001600020819055508173ffffffffffffffffffffffffffffffffffffffff1663095ea7b360008054906101000a900473ffffffffffffffffffffffffffffffffffffffff16836040518363ffffffff1660e01b815260040161048f929190611402565b6020604051808303816000875af11580156104ae573d6000803e3d6000fd5b505050506040513d601f19601f820116820180604052508101906104d29190611463565b5060008060008054906101000a900473ffffffffffffffffffffffffffffffffffffffff1673ffffffffffffffffffffffffffffffffffffffff1663baa2abde87878660018033426040518863ffffffff1660e01b815260040161053c97969594939291906114d5565b60408051808303816000875af115801561055a573d6000803e3d6000fd5b505050506040513d601f19601f8201168201806040525081019061057e9190611559565b915091507f0f6264d07f995a2cacc9809fe313977011773cb226f8d3e3c614e7451144a4bb8282866040516105b593929190611599565b60405180910390a1505050505050565b600160009054906101000a900473ffffffffffffffffffffffffffffffffffffffff1681565b8373ffffffffffffffffffffffffffffffffffffffff16600073ffffffffffffffffffffffffffffffffffffffff161415801561065557508273ffffffffffffffffffffffffffffffffffffffff16600073ffffffffffffffffffffffffffffffffffffffff1614155b610694576040517f08c379a000000000000000000000000000000000000000000000000000000000815260040161068b906112e5565b60405180910390fd5b61271082101580156106a857506127108110155b6106e7576040517f08c379a00000000000000000000000000000000000000000000000000000000081526004016106de90611642565b60405180910390fd5b8373ffffffffffffffffffffffffffffffffffffffff166323b872dd3330856040518463ffffffff1660e01b815260040161072493929190611662565b6020604051808303816000875af1158015610743573d6000803e3d6000fd5b505050506040513d601f19601f820116820180604052508101906107679190611463565b508273ffffffffffffffffffffffffffffffffffffffff166323b872dd3330846040518463ffffffff1660e01b81526004016107a593929190611662565b6020604051808303816000875af11580156107c4573d6000803e3d6000fd5b505050506040513d601f19601f820116820180604052508101906107e89190611463565b508373ffffffffffffffffffffffffffffffffffffffff1663095ea7b360008054906101000a900473ffffffffffffffffffffffffffffffffffffffff16846040518363ffffffff1660e01b8152600401610844929190611402565b6020604051808303816000875af1158015610863573d6000803e3d6000fd5b505050506040513d601f19601f820116820180604052508101906108879190611463565b508273ffffffffffffffffffffffffffffffffffffffff1663095ea7b360008054906101000a900473ffffffffffffffffffffffffffffffffffffffff16836040518363ffffffff1660e01b81526004016108e3929190611402565b6020604051808303816000875af1158015610902573d6000803e3d6000fd5b505050506040513d601f19601f820116820180604052508101906109269190611463565b5060008060008060009054906101000a900473ffffffffffffffffffffffffffffffffffffffff1673ffffffffffffffffffffffffffffffffffffffff1663e8e337008888888860018030426040518963ffffffff1660e01b8152600401610995989796959493929190611699565b6060604051808303816000875af11580156109b4573d6000803e3d6000fd5b505050506040513d601f19601f820116820180604052508101906109d89190611717565b9250925092506000600160009054906101000a900473ffffffffffffffffffffffffffffffffffffffff1673ffffffffffffffffffffffffffffffffffffffff1663e6a4390589896040518363ffffffff1660e01b8152600401610a3d929190611305565b602060405180830381865afa158015610a5a573d6000803e3d6000fd5b505050506040513d601f19601f82011682018060405250810190610a7e9190611343565b905081600260003373ffffffffffffffffffffffffffffffffffffffff1673ffffffffffffffffffffffffffffffffffffffff16815260200190815260200160002060008373ffffffffffffffffffffffffffffffffffffffff1673ffffffffffffffffffffffffffffffffffffffff1681526020019081526020016000206000828254610b0c9190611799565b925050819055507fea3d82be5e59342c13dd7f27b4d40dcab731c97402c05a3feccb5ecd27e1ee7084848484604051610b4894939291906117cd565b60405180910390a15050505050505050565b6002602052816000526040600020602052806000526040600020600091509150505481565b6000600160009054906101000a900473ffffffffffffffffffffffffffffffffffffffff1673ffffffffffffffffffffffffffffffffffffffff1663e6a4390585856040518363ffffffff1660e01b8152600401610bde929190611305565b602060405180830381865afa158015610bfb573d6000803e3d6000fd5b505050506040513d601f19601f82011682018060405250810190610c1f9190611343565b9050600073ffffffffffffffffffffffffffffffffffffffff168173ffffffffffffffffffffffffffffffffffffffff1603610c90576040517f08c379a0000000000000000000000000000000000000000000000000000000008152600401610c879061185e565b60405180910390fd5b8373ffffffffffffffffffffffffffffffffffffffff166323b872dd3330856040518463ffffffff1660e01b8152600401610ccd93929190611662565b6020604051808303816000875af1158015610cec573d6000803e3d6000fd5b505050506040513d601f19601f82011682018060405250810190610d109190611463565b508373ffffffffffffffffffffffffffffffffffffffff1663095ea7b360008054906101000a900473ffffffffffffffffffffffffffffffffffffffff16846040518363ffffffff1660e01b8152600401610d6c929190611402565b6020604051808303816000875af1158015610d8b573d6000803e3d6000fd5b505050506040513d601f19601f82011682018060405250810190610daf9190611463565b506000600267ffffffffffffffff811115610dcd57610dcc61187e565b5b604051908082528060200260200182016040528015610dfb5781602001602082028036833780820191505090505b5090508481600081518110610e1357610e126118ad565b5b602002602001019073ffffffffffffffffffffffffffffffffffffffff16908173ffffffffffffffffffffffffffffffffffffffff16815250508381600181518110610e6257610e616118ad565b5b602002602001019073ffffffffffffffffffffffffffffffffffffffff16908173ffffffffffffffffffffffffffffffffffffffff168152505060008060009054906101000a900473ffffffffffffffffffffffffffffffffffffffff1673ffffffffffffffffffffffffffffffffffffffff1663d06ca61f85846040518363ffffffff1660e01b8152600401610efa92919061199a565b600060405180830381865afa158015610f17573d6000803e3d6000fd5b505050506040513d6000823e3d601f19601f82011682018060405250810190610f409190611af4565b600181518110610f5357610f526118ad565b5b6020026020010151905060008054906101000a900473ffffffffffffffffffffffffffffffffffffffff1673ffffffffffffffffffffffffffffffffffffffff166338ed173985838533426040518663ffffffff1660e01b8152600401610fbe959493929190611b3d565b6000604051808303816000875af1158015610fdd573d6000803e3d6000fd5b505050506040513d6000823e3d601f19601f820116820180604052508101906110069190611af4565b507f820d64160d5797e5a27a06f05d8843f04063d6808acae9cb2c8740406b0841688133604051611038929190611b97565b60405180910390a1505050505050565b60008054906101000a900473ffffffffffffffffffffffffffffffffffffffff1681565b6000604051905090565b600080fd5b600080fd5b600073ffffffffffffffffffffffffffffffffffffffff82169050919050565b60006110ab82611080565b9050919050565b6110bb816110a0565b81146110c657600080fd5b50565b6000813590506110d8816110b2565b92915050565b600080604083850312156110f5576110f4611076565b5b6000611103858286016110c9565b9250506020611114858286016110c9565b9150509250929050565b611127816110a0565b82525050565b6000602082019050611142600083018461111e565b92915050565b6000819050919050565b61115b81611148565b811461116657600080fd5b50565b60008135905061117881611152565b92915050565b6000806000806080858703121561119857611197611076565b5b60006111a6878288016110c9565b94505060206111b7878288016110c9565b93505060406111c887828801611169565b92505060606111d987828801611169565b91505092959194509250565b6111ee81611148565b82525050565b600060208201905061120960008301846111e5565b92915050565b60008060006060848603121561122857611227611076565b5b6000611236868287016110c9565b9350506020611247868287016110c9565b925050604061125886828701611169565b9150509250925092565b600082825260208201905092915050565b7f546f6b656e20616464726573732063616e6e6f74206265207a65726f2061646460008201527f7265737300000000000000000000000000000000000000000000000000000000602082015250565b60006112cf602483611262565b91506112da82611273565b604082019050919050565b600060208201905081810360008301526112fe816112c2565b9050919050565b600060408201905061131a600083018561111e565b611327602083018461111e565b9392505050565b60008151905061133d816110b2565b92915050565b60006020828403121561135957611358611076565b5b60006113678482850161132e565b91505092915050565b7f796f7520646f6e2774206861766520616e79206c697175696469747920746f2060008201527f74686520706f6f6c000000000000000000000000000000000000000000000000602082015250565b60006113cc602883611262565b91506113d782611370565b604082019050919050565b600060208201905081810360008301526113fb816113bf565b9050919050565b6000604082019050611417600083018561111e565b61142460208301846111e5565b9392505050565b60008115159050919050565b6114408161142b565b811461144b57600080fd5b50565b60008151905061145d81611437565b92915050565b60006020828403121561147957611478611076565b5b60006114878482850161144e565b91505092915050565b6000819050919050565b6000819050919050565b60006114bf6114ba6114b584611490565b61149a565b611148565b9050919050565b6114cf816114a4565b82525050565b600060e0820190506114ea600083018a61111e565b6114f7602083018961111e565b61150460408301886111e5565b61151160608301876114c6565b61151e60808301866114c6565b61152b60a083018561111e565b61153860c08301846111e5565b98975050505050505050565b60008151905061155381611152565b92915050565b600080604083850312156115705761156f611076565b5b600061157e85828601611544565b925050602061158f85828601611544565b9150509250929050565b60006060820190506115ae60008301866111e5565b6115bb60208301856111e5565b6115c8604083018461111e565b949350505050565b7f626f746820746f6b656e20616d6f756e742073686f756c64206265206772656160008201527f746572207468616e206f7220657175616c203130303030000000000000000000602082015250565b600061162c603783611262565b9150611637826115d0565b604082019050919050565b6000602082019050818103600083015261165b8161161f565b9050919050565b6000606082019050611677600083018661111e565b611684602083018561111e565b61169160408301846111e5565b949350505050565b6000610100820190506116af600083018b61111e565b6116bc602083018a61111e565b6116c960408301896111e5565b6116d660608301886111e5565b6116e360808301876114c6565b6116f060a08301866114c6565b6116fd60c083018561111e565b61170a60e08301846111e5565b9998505050505050505050565b6000806000606084860312156117305761172f611076565b5b600061173e86828701611544565b935050602061174f86828701611544565b925050604061176086828701611544565b9150509250925092565b7f4e487b7100000000000000000000000000000000000000000000000000000000600052601160045260246000fd5b60006117a482611148565b91506117af83611148565b92508282019050808211156117c7576117c661176a565b5b92915050565b60006080820190506117e260008301876111e5565b6117ef60208301866111e5565b6117fc60408301856111e5565b611809606083018461111e565b95945050505050565b7f506f6f6c206973206e6f74206578697374000000000000000000000000000000600082015250565b6000611848601183611262565b915061185382611812565b602082019050919050565b600060208201905081810360008301526118778161183b565b9050919050565b7f4e487b7100000000000000000000000000000000000000000000000000000000600052604160045260246000fd5b7f4e487b7100000000000000000000000000000000000000000000000000000000600052603260045260246000fd5b600081519050919050565b600082825260208201905092915050565b6000819050602082019050919050565b611911816110a0565b82525050565b60006119238383611908565b60208301905092915050565b6000602082019050919050565b6000611947826118dc565b61195181856118e7565b935061195c836118f8565b8060005b8381101561198d5781516119748882611917565b975061197f8361192f565b925050600181019050611960565b5085935050505092915050565b60006040820190506119af60008301856111e5565b81810360208301526119c1818461193c565b90509392505050565b600080fd5b6000601f19601f8301169050919050565b6119e9826119cf565b810181811067ffffffffffffffff82111715611a0857611a0761187e565b5b80604052505050565b6000611a1b61106c565b9050611a2782826119e0565b919050565b600067ffffffffffffffff821115611a4757611a4661187e565b5b602082029050602081019050919050565b600080fd5b6000611a70611a6b84611a2c565b611a11565b90508083825260208201905060208402830185811115611a9357611a92611a58565b5b835b81811015611abc5780611aa88882611544565b845260208401935050602081019050611a95565b5050509392505050565b600082601f830112611adb57611ada6119ca565b5b8151611aeb848260208601611a5d565b91505092915050565b600060208284031215611b0a57611b09611076565b5b600082015167ffffffffffffffff811115611b2857611b2761107b565b5b611b3484828501611ac6565b91505092915050565b600060a082019050611b5260008301886111e5565b611b5f60208301876111e5565b8181036040830152611b71818661193c565b9050611b80606083018561111e565b611b8d60808301846111e5565b9695505050505050565b6000604082019050611bac60008301856111e5565b611bb9602083018461111e565b939250505056fea26469706673582212204eac4e08f309dc6d1e8dd006ca5a0fa6f9296d720b3499e3247c2bc4c6d2cb3464736f6c63430008110033",
  "linkReferences": {},
  "deployedLinkReferences": {}
}